:10000000F82BDF1B0B2883135F1883170008840A63
:100010000319DF0A080000308A000408840A8207F6
:10002000003400340034003400347E3481348134B0
:10003000423400348834FB34803464349234923453
:10004000FC347834843484347834FF34893489340B
:100050008134603490349034FE3400340F34BF3433
:10006000033430346234E634E034E034E23466346D
:1000700030340034003444344034403444340034A8
:1000800000340034103426344034403426341034E4
:100090000034003416342634603460342634163488
:1000A000003426346934E934E634E634E93469341A
:1000B000263441344234433444344534463447349E
:0600C000483449344C34C1
:10011800A6014E30B120A601A60A5230B12008002F
:1001280064008001840A0406031900340406952833
:100138000130A0000C30A100E8200030A0000A30F7
:10014800A100E8200730A0000B30A100E820003013
:10015800A0000930A100E8200800B0000030AE007F
:100168000130AF0026080319BD280030AE00053065
:10017800AF00B101B20131083007A7002708840099
:1001880083130008A800A9013108AB00AA012E08B2
:100198002A07AC002F0803182F0A2B07AD002808E0
:1001A8002C04A00029082D04A100E8200130B10783
:1001B8000318B20A0030B2070030320204300319C3
:1001C800310203180800BF282108A4002008A30052
:1001D800FB30A20022088505FE30A2002208850512
:1001E800FB30A20022088505A501A41FFD2885145F
:1001F8000129FD30A20022088505FE30A200220850
:1002080085050530A200A20B07290A2983120514C7
:10021800000003108312230DA300240DA400013055
:10022800A2002208A50710302502031CF928FD307A
:10023800A20022088505FE30A200220885050000DC
:10024800831205150800BB00BA013B083307B40048
:10025800B501B50D0310B40DB50D0310B40DB50DF2
:100268003408013EB60035080318013E003EB700C9
:100278003A08B800B90137083902031D452936087C
:10028800380203180800A6014630B120A601A60AC4
:100298004A30B120BC013B08023EB40000300318CC
:1002A8000130B5003508803A803C031D5D293408CB
:1002B8003C020318FA2983123C08B40001300310E9
:1002C800B40DFF3E031D63290310340D473E84001F
:1002D80083130008B5003C08B60001300310B60DC2
:1002E800FF3E031D72290310360D463E8400350873
:1002F80080003C08B40001300310B40DFF3E031D1C
:1003080080290310340D483E84000008B5003C08DD
:10031800B60001300310B60DFF3E031D8E290310F1
:10032800360D473E8400350880003C08B400013093
:100338000310B40DFF3E031D9C290310340D493EE4
:1003480084000008B5003C08B60001300310B60D63
:10035800FF3E031DAA290310360D483E84003508C8
:1003680080003B08023EB400003003180130B5009D
:100378003C08013EB600003003180130B7003508CC
:100388003706031DC92934083606031DD9293C0838
:10039800B40001300310B40DFF3E031DCE29031035
:1003A800340D493E84008001F5293C08B400013031
:1003B8000310B40DFF3E031DDC290310340D4A3E23
:1003C80084000008B5003C08B60001300310B60DE3
:1003D800FF3E031DEA290310360D493E8400350807
:1003E80080000130B4003408BC074F292030831244
:1003F800B400340885068230B500DD30B400B40B93
:10040800032AB50B032A082A01308312B4003408E2
:10041800BA0729290830831685003B3083128500E6
:10042800FF3099009C206330BD003D08C000693052
:10043800BD003D08C1006130BD003D08C2006F30FD
:10044800BD003D08C3004030A0000030A1000430CA
:10045800BD003D08A200A301A30AF8220230BD0096
:100468003D08B300043027214730BD003D08C000D7
:100478004830BD003D08C1004930BD003D08C200FC
:100488004C30BD003D08C3004030A0000030A10042
:100498000430BD003D08A200A301F822B3010430D6
:1004A80027210330BF008A30BE005530BD00BD0B88
:1004B8005B2ABE0B5B2ABF0B5B2A622A8312C4012C
:1004C800C5014508493E84000B20BD003D08C00019
:1004D80045084A3E84000B20BD003D08C10040305D
:1004E800A0000030A1000430BD003D08A200A30117
:1004F800A30AF8228C208230BE00DD30BD00BD0B7F
:10050800832ABE0B832A882A83124508023EBD002F
:100518003D08C50009304502031C652A0130BD00AD
:100528003D08C40705304402031C642A4930A00072
:100538008030A1000430BD003D08A200A301A30A39
:10054800F8228C20C401C50100304504A0000A30FF
:10055800A100E8200D30BE00FB30BD00BD0BB22A63
:10056800BE0BB22AB72A01308312BD003D08C50769
:100578000F304502031CA82A0F30BD003D08C500F6
:1005880000304504A0000A30A100E8200D30BE006C
:10059800FB30BD00BD0BCE2ABE0BCE2AD32A0130BC
:1005A8008312C5024508031DC42A0130BD003D0859
:1005B800C40714304402031CA72A0630BF001330B6
:1005C800BE00AD30BD00BD0BE72ABE0BE72ABF0B4E
:1005D800E72AEE2A01308312BD003D08C407143013
:1005E80044020318172AA62AAC01AB012303031DF2
:1005F8002308031D082B0230A4002408AC00023095
:10060800A4002408AB00872B02302306031D872B88
:10061800AC01AB01872B0530302B0930302B0D3066
:10062800302B1130302B1530302B1930302B1D303A
:10063800302B2130302B2530302B2930302B2D30EA
:10064800302B3130302B3530302B3930302B3D309A
:10065800302B4130302B4530A4002408AD00203029
:10066800A400240885062D0884000B20A4002C086B
:10067800A50001300310A50DFF3E031D3E2B0310FE
:10068800250D463E84002408831380002D08013E72
:1006980084000B20A4002C08A50001300310A50D30
:1006A800FF3E031D522B0310250D473E84002408EE
:1006B80080002D08023E84000B20A4002C08A50011
:1006C80001300310A50DFF3E031D652B0310250DFA
:1006D800483E8400240880002D08033E84000B2037
:1006E800A4002C08A50001300310A50DFF3E031D32
:1006F800782B0310250D493E840024088000013022
:10070800A4002408AC0722082B07A400A501A50D06
:100718002508803A803C031D932B24082C020318DB
:10072800EB2B83122108A5002B082002A400031C30
:10073800A5032C082407A7002508A6000318A60A65
:10074800AC1BA60383122608A8002808DF00270888
:1007580084000120A900AA012A08003A0319B52B30
:10076800332B2908213A03191B2B603A03191D2B37
:10077800033A03191F2B013A0319212B073A0319CE
:10078800232B013A0319252B033A0319272B013A86
:100798000319292B0F3A03192B2B013A03192D2B77
:1007A800053A03192F2B2D3A0319132B023A031973
:1007B8000F2B073A0319192B013A0319172B0C3A77
:1007C8000319112B063A0319152B332B332B8312DC
:1007D8002303031D0800C601C701C801C901CA01D6
:1007E800CB01CC01CD0108008313463084005A3078
:0607F800942083010E2A8B
:08400000FF3FFF3FFF3FFF3FC0
:02400E008431FB
:00000001FF
